S00F000050726F6A6563742E737265633E
S11300000C9452000C9471010C946F000C946F00CA
S11300100C946F000C946F000C946F000C946F00A0
S11300200C946F000C946F000C946F000C946F0090
S11300300C946F000C946F000C946F000C946F0080
S11300400C946F000C946F000C9487010C946F0057
S11300500C946F000C946F000C946F000C946F0060
S11300600C946F000C946F004E414E494E49545904
S1130070494E46CDCCCC3D0AD7233C17B7D138776F
S1130080CC2B329595E6241FB14F0A000020410085
S113009000C84200401C4620BCBE4CCA1B0E5AAECF
S11300A0C59D740011241FBECFEFD8E0DEBFCDBFC5
S11300B011E0A0E0B1E0E0EDFBE002C005900D929C
S11300C0AC34B107D9F721E0ACE4B1E001C01D9232
S11300D0A636B207E1F70E9498000C94E6050C944A
S11300E0000087B18E7F87B987E880937A0080E427
S11300F080937C000895EAE7F0E080818064808347
S113010080917A0084FFFCCF60917800709179002F
S113011080E090E00E94CA02EAE7F0E020812061DA
S1130120208320E030EC4FE754E40E94220208953B
S1130130CF93DF9300D0CDB7DEB78AB18B7F8AB976
S11301408BB184608BB98DB381608DBBE9E6F0E03F
S113015080818E7F80838081826080830E94710091
S11301600E94BD010E94E3017894809102018130D4
S113017009F041C010924F0110924E0110925001AB
S113018080914C01811107C083E091E00E940A0232
S113019081E080934C010E947B004B015C0120E0D4
S11301A030E04CED52E40E9481030E9494026B0102
S11301B07C0180910001909101018C159D05A9F2AB
S11301C0D0920101C09200018BE191E00E940A02E9
S11301D04AE06AE571E0C6010E945D058AE591E0A6
S11301E00E940A0289E191E00E940A02C501B40159
S11301F00E94D901BACF8FEF9FEF909301018093B2
S1130200000180914C01813031F489E291E00E9437
S11302100A0210924C0180914D01813009F0A5CF62
S1130220BE016F5F7F4F80E591E00E94EE036B019A
S11302307C01E981FA818081811104C0809150019F
S1130240811105C08DE391E00E940A0241C020E0C3
S113025030E04CED52E4C701B6010E947C0318164D
S113026054F020E030E0A901C701B6010E941D024C
S113027088236CF409C00F2EC12CD12CFCEDEF2E79
S1130280F2E4FF2EF02D03C0C12CD12C7601C7015E
S1130290B6010E949402DC01CB014AE060E571E002
S11302A00E945D058BE191E00E940A0280E591E0E5
S11302B00E940A0289E191E00E940A0220E030E0F3
S11302C04CED52E4C701B6010E9422020E94D901FA
S11302D010924F0110924E011092500110924D0154
S11302E044CF1F920F920FB60F9211248F939F93B6
S11302F04A9BFECF9091020181E0892780930201FD
S11303009F918F910F900FBE0F901F9018951F9281
S11303100F920FB60F9211242F938F939F93EF9305
S1130320FF932091C6002A3011F02D3079F480918A
S1130330020181110BC0E0914E01F0914F01E05B8D
S1130340FE4F108281E080934D010DC080914E01DB
S113035090914F01FC01E05BFE4F20830196909346
S11303604F0180934E01FF91EF919F918F912F91B7
S11303700F900FBE0F901F90189584B5816084BDB7
S113038084B5826084BD85B5877F85BD85B5816070
S113039085BD85B58D7F85BD85B5846085BD84B5F6
S11303A08F7B84BD84B5806884BD8AB180648AB93A
S11303B0089520E030E04FE753E40E9481030E9457
S11303C09B0267BD0895E1ECF0E080818061808349
S11303D0808188608083A2ECB0E08C918F7B8C93C9
S11303E08C918F778C938C9182608C938C918460A8
S11303F08C9380818B7F808387E68093C400808187
S11304008068808308959091C00095FFFCCF80930D
S1130410C60008950F931F93CF938C01C0E003C0CF
S11304200E940302CF5FF801EC0FF11D808181115E
S1130430F7CFCF911F910F9108950E94070308F4FD
S113044081E008950E9436020C9442030E943B030B
S113045058F00E94340340F029F45F3F29F00C94D3
S11304602B0351110C9476030C9431030E94530313
S113047068F39923B1F3552391F3951B550BBB27CF
S1130480AA2762177307840738F09F5F5F4F220F14
S1130490331F441FAA1FA9F335D00E2E3AF0E0E80B
S11304A032D091505040E695001CCAF72BD0FE2F55
S11304B029D0660F771F881FBB1F261737074807E9
S11304C0AB07B0E809F0BB0B802DBF01FF279358A1
S11304D05F4F3AF09E3F510578F00C942B030C9437
S11304E076035F3FE4F3983ED4F38695779567955A
S11304F0B795F7959F5FC9F7880F911D96958795D6
S113050097F90895E1E0660F771F881FBB1F6217F4
S113051073078407BA0720F0621B730B840BBA0BB2
S1130520EE1F88F7E09508950E949B026894B1112C
S11305300C94760308950E945B0388F09F5798F00B
S1130540B92F9927B751B0F0E1F0660F771F881FD4
S1130550991F1AF0BA95C9F714C0B13091F00E94EE
S11305607503B1E008950C947503672F782F8827DD
S1130570B85F39F0B93FCCF3869577956795B39515
S1130580D9F73EF490958095709561957F4F8F4F84
S11305909F4F0895E89409C097FB3EF49095809589
S11305A0709561957F4F8F4F9F4F9923A9F0F92F35
S11305B096E9BB279395F695879577956795B795B3
S11305C0F111F8CFFAF4BB0F11F460FF1BC06F5F99
S11305D07F4F8F4F9F4F16C0882311F096E911C0AB
S11305E0772321F09EE8872F762F05C0662371F0CC
S11305F096E8862F70E060E02AF09A95660F771FE0
S1130600881FDAF7880F9695879597F90895990FBB
S11306100008550FAA0BE0E8FEEF16161706E807C8
S1130620F907C0F012161306E407F50798F0621BE9
S1130630730B840B950B39F40A2661F0232B242BBE
S1130640252B21F408950A2609F4A140A6958FEFDD
S1130650811D811D089597F99F6780E870E060E02F
S113066008959FEF80EC089500240A941616170647
S113067018060906089500240A941216130614068F
S113068005060895092E0394000C11F4882352F0F2
S1130690BB0F40F4BF2B11F460FF04C06F5F7F4FAA
S11306A08F4F9F4F089557FD9058440F551F59F091
S11306B05F3F71F04795880F97FB991F61F09F3F4B
S11306C079F087950895121613061406551FF2CF74
S11306D04695F1DF08C0161617061806991FF1CFC4
S11306E086957105610508940895E894BB276627EB
S11306F07727CB0197F908950E94070308F48FEF39
S113070008950E9494030C9442030E94340338F029
S11307100E943B0320F0952311F00C942B030C94BE
S1130720310311240C9476030E94530370F3959FB4
S1130730C1F3950F50E0551F629FF001729FBB27D4
S1130740F00DB11D639FAA27F00DB11DAA1F649F70
S11307506627B00DA11D661F829F2227B00DA11D23
S1130760621F739FB00DA11D621F839FA00D611DA9
S1130770221F749F3327A00D611D231F849F600DCA
S1130780211D822F762F6A2F11249F5750409AF0F3
S1130790F1F088234AF0EE0FFF1FBB1F661F771F7F
S11307A0881F91505040A9F79E3F510580F00C944A
S11307B02B030C9476035F3FE4F3983ED4F38695C1
S11307C077956795B795F795E7959F5FC1F7FE2BEA
S11307D0880F911D9695879597F90895A0E0B0E04C
S11307E0E4EFF3E00C94A605EC016B0161157105CF
S11307F019F0FB01918380837E01FFEFEF1AFF0A5A
S11308000881802F90E00E943C05892B11F0E701BC
S1130810F3CF0D3239F47E0182E0E80EF11C098138
S113082011E008C00B3229F47E0192E0E90EF11CBC
S1130830098110E0E701219743E050E060E770E0B0
S1130840CE010E944505892BC1F4239645E050E072
S11308506BE670E0CE010E944505892B09F42596CC
S1130860C114D10419F0F601D183C0831111F6C06B
S113087060E070E080E89FE7FAC043E050E068E69B
S113088070E0CE010E944505892B59F4C114D104AE
S113089009F4E9C0F2E0EF0EF11CF601F182E08206
S11308A0E2C020E030E0A901C0E0D0E0F70180ED33
S11308B0A82EA00E89E08A1530F1912F9260B92EEE
S11308C0812F887012FF04C0811124C0219622C098
S11308D081112197A5E0B0E00E949505DC01CB01D0
S11308E0880F991FAA1FBB1F9C01AD012A0D311D42
S11308F0411D511D283989E93807480789E15807FE
S113090048F0166006C09EEFA9120AC013FD40C04D
S11309101860B12E8FEFE81AF80A00811B2DC6CF9C
S1130920802F8F7D8534A1F580818D3211F4106183
S113093006C08B3221F0319661E070E004C0818101
S1130940329662E070E080538A3018F0E61BF70BB1
S11309501FC060E070E060389CE079075CF4DB0164
S1130960AA0FBB1FAA0FBB1F6A0F7B1F660F771F3F
S1130970680F711D3196DF0111978C9180538A3075
S113098050F314FF03C0719561957109C60FD71F09
S113099011FF08C0C114D10429F0CF010197F60159
S11309A091838083CA01B9010E94CA02212F237056
S11309B0233019F04B015C0106C04B015C01B7FA0E
S11309C0B094B7F8B09420E030E0A901C501B401B7
S11309D00E941D02882309F43EC0D7FF06C0D195AA
S11309E0C195D10907E810E002C00FE910E06801E1
S11309F0F8E1CF1AD10890E2E92EF12CCE15DF05EB
S1130A0074F0F8012591359145915491C501B401D3
S1130A100E9481034B015C01CE19DF09EFCF045022
S1130A201109F594E7940C151D0541F78A2D880FDB
S1130A308B2D881F8F3F49F020E030E0A901C501CC
S1130A40B4010E941D02811106C082E290E09093DD
S1130A50650180936401C501B40109C060E070E0E0
S1130A6080E89FEF04C060E070E080EC9FE7CDB7C2
S1130A70DEB7ECE00C94C20591110C94820580322F
S1130A8019F089508550C8F70895FB01DC014150E5
S1130A90504088F08D9181341CF08B350CF4805ECD
S1130AA0659161341CF06B350CF4605E861B61113A
S1130AB071F3990B0895881BFCCFBB274A3031F49E
S1130AC0992322F4BDE2909581959F4F0C9469057A
S1130AD0BB27FB015527AA27880F991FAA1FA41714
S1130AE010F0A41B83955051B9F7A05DAA3308F008
S1130AF0A95DA193009779F7B111B1931192CB013C
S1130B000C948505992788270895DC01FC01672F3B
S1130B1071917723E1F7329704C07C916D937083D0
S1130B206291AE17BF07C8F308950E94D705A59F29
S1130B30900DB49F900DA49F800D911D11240895D4
S1130B402F923F924F925F926F927F928F929F92D9
S1130B50AF92BF92CF92DF92EF92FF920F931F93C7
S1130B60CF93DF93CDB7DEB7CA1BDB0B0FB6F89478
S1130B70DEBF0FBECDBF09942A88398848885F84B8
S1130B806E847D848C849B84AA84B984C884DF8029
S1130B90EE80FD800C811B81AA81B981CE0FD11D0D
S1130BA00FB6F894DEBF0FBECDBFED010895A29F2E
S1130BB0B001B39FC001A39F700D811D1124911D2D
S1130BC0B29F700D811D1124911D0895F894FFCFDB
S1130BD0FFFF014175746F6D61746963204D6F642B
S1130BE065204973204F6E20210A0054656D70659D
S1130BF07261747572653A20004D616E75616C2086
S1130C004D6F6465204973204F6E210A00496E764A
S10F0C10616C696420696E7075740A00E0
S9030000FC
